:100000000C942A000C9434000C9434000C943400AA
:100010000C9434000C9434000C9434000C94340090
:100020000C9434000C9434000C9434000C94340080
:100030000C9434000C9434000C9434000C94340070
:100040000C9434000C9434000C9434000C94340060
:100050000C94340011241FBECFE5D8E0DEBFCDBF25
:100060000E9436000C9455000C9400008FE08ABB6F
:1000700084BBE1E04FE028EA31E672E064E058E05A
:10008000EBBB45BBC9010197F1F77BBB45BBC90180
:100090000197F1F76BBB45BBC9010197F1F75BBB5A
:0E00A00045BBC9010197F1F7EBCFF894FFCFF4
:00000001FF
