:100000000C942A000C943C000C943C000C943C0092
:100010000C943C000C943C000C943C000C943C0070
:100020000C943C000C943C000C943C000C943C0060
:100030000C943C000C943C000C943C000C943C0050
:100040000C943C000C943C000C943C000C943C0040
:100050000C943C0011241FBECFE5D8E0DEBFCDBF1D
:1000600010E0A0E6B0E001C01D92A236B107E1F7B2
:100070000E94DC010C9474020C94000020E030E03B
:100080006FE049E150E014C06BBB65BB80E197E2D3
:10009000FA013197F1F70197D9F71BBA15BA80E148
:1000A00097E2FA013197F1F70197D9F72F5F3F4FA8
:1000B000293031054CF3309361002093600008959E
:1000C00081E08BBB8FE085BB80E197E229E130E0E6
:1000D000F9013197F1F70197D9F782E08BBB8FE0F7
:1000E00085BB80E197E229E130E0F9013197F1F732
:1000F0000197D9F784E08BBB8FE085BB80E197E265
:1001000029E130E0F9013197F1F70197D9F788E05B
:100110008BBB8FE085BB80E197E229E130E0F901FC
:100120003197F1F70197D9F7089520E030E06FE0BB
:1001300049E150E014C06BBB65BB80E197E2FA0176
:100140003197F1F70197D9F71BBA15BA80E197E219
:10015000FA013197F1F70197D9F72F5F3F4F23301D
:1001600031054CF33093610020936000089588E0DE
:100170008BBB8FE085BB80E197E229E130E0F9019C
:100180003197F1F70197D9F784E08BBB8FE085BBFE
:1001900080E197E229E130E0F9013197F1F7019729
:1001A000D9F782E08BBB8FE085BB80E197E229E144
:1001B00030E0F9013197F1F70197D9F781E08BBB76
:1001C0008FE085BB80E197E229E130E0F9013197CA
:1001D000F1F70197D9F7089520E030E079E06FE07A
:1001E00049E150E00BC07BBB65BB80E197E2FA01BF
:1001F0003197F1F70197D9F72F5F3F4F2330310542
:1002000094F33093610020936000089520E030E083
:1002100076E06FE049E150E00BC07BBB65BB80E15D
:1002200097E2FA013197F1F70197D9F72F5F3F4F26
:100230002330310594F330936100209360000895DA
:1002400020E030E07AE06FE049E150E00BC07BBB9A
:1002500065BB80E197E2FA013197F1F70197D9F791
:100260002F5F3F4F2430310594F33093610020938A
:100270006000089520E030E075E06FE049E150E073
:100280000BC07BBB65BB80E197E2FA013197F1F7C8
:100290000197D9F72F5F3F4F2430310594F3309306
:1002A00061002093600008958FE08BBB81E085BBE7
:1002B00080E197E229E130E0F9013197F1F7019708
:1002C000D9F78FE08BBB82E085BB80E197E229E123
:1002D00030E0F9013197F1F70197D9F78FE08BBB47
:1002E00084E085BB80E197E229E130E0F9013197B4
:1002F000F1F70197D9F78FE08BBB85BB80E197E2DF
:1003000029E130E0F9013197F1F70197D9F71BBAEC
:1003100015BA80E197E229E130E0F9013197F1F770
:100320000197D9F78FE08BBB84E085BB80E197E232
:1003300029E130E0F9013197F1F70197D9F78FE022
:100340008BBB82E085BB80E197E229E130E0F901D7
:100350003197F1F70197D9F78FE08BBB81E085BB2F
:1003600080E197E229E130E0F9013197F1F7019757
:10037000D9F7089520E030E06FE049E150E014C083
:100380006BBB65BB88E893E1FA013197F1F7019700
:10039000D9F71BBA15BA88E893E1FA013197F1F75A
:1003A0000197D9F72F5F3F4F293031054CF3309338
:1003B00061002093600008958FE08ABB84BB0E9497
:1003C0003E0010926100109260000BC00E9460001D
:1003D00080916000909161000196909361008093FC
:1003E0006000809160009091610004977CF30E940E
:1003F000950010926100109260000BC00E94B7003F
:1004000080916000909161000196909361008093CB
:100410006000809160009091610004977CF30E94DD
:10042000950010926100109260000DC00E94600063
:100430000E94B700809160009091610001969093B6
:100440006100809360008091600090916100099745
:100450006CF30E9495000E943A010E9495000E9450
:1004600020010E94950010926100109260000DC062
:100470000E943A010E9420018091600090916100E9
:10048000019690936100809360008091600090914C
:10049000610004976CF30E9495000E94EC000E949A
:1004A00095000E9406010E94950010926100109232
:1004B00060000DC00E94EC000E9406018091600067
:1004C000909161000196909361008093600080910B
:1004D00060009091610004976CF30E9495000E9467
:0C04E00054010E94BA016BCFF894FFCFCA
:040000030000007C7D
:00000001FF
